{
  "_format": "hh-sol-artifact-1",
  "contractName": "StudentToken",
  "sourceName": "contracts/StudentToken.sol",
  "abi": [
    {
      "inputs": [],
      "stateMutability": "nonpayable",
      "type": "constructor"
    },
    {
      "inputs": [
        {
          "internalType": "address",
          "name": "spender",
          "type": "address"
        },
        {
          "internalType": "uint256",
          "name": "allowance",
          "type": "uint256"
        },
        {
          "internalType": "uint256",
          "name": "needed",
          "type": "uint256"
        }
      ],
      "name": "ERC20InsufficientAllowance",
      "type": "error"
    },
    {
      "inputs": [
        {
          "internalType": "address",
          "name": "sender",
          "type": "address"
        },
        {
          "internalType": "uint256",
          "name": "balance",
          "type": "uint256"
        },
        {
          "internalType": "uint256",
          "name": "needed",
          "type": "uint256"
        }
      ],
      "name": "ERC20InsufficientBalance",
      "type": "error"
    },
    {
      "inputs": [
        {
          "internalType": "address",
          "name": "approver",
          "type": "address"
        }
      ],
      "name": "ERC20InvalidApprover",
      "type": "error"
    },
    {
      "inputs": [
        {
          "internalType": "address",
          "name": "receiver",
          "type": "address"
        }
      ],
      "name": "ERC20InvalidReceiver",
      "type": "error"
    },
    {
      "inputs": [
        {
          "internalType": "address",
          "name": "sender",
          "type": "address"
        }
      ],
      "name": "ERC20InvalidSender",
      "type": "error"
    },
    {
      "inputs": [
        {
          "internalType": "address",
          "name": "spender",
          "type": "address"
        }
      ],
      "name": "ERC20InvalidSpender",
      "type": "error"
    },
    {
      "anonymous": false,
      "inputs": [
        {
          "indexed": true,
          "internalType": "address",
          "name": "owner",
          "type": "address"
        },
        {
          "indexed": true,
          "internalType": "address",
          "name": "spender",
          "type": "address"
        },
        {
          "indexed": false,
          "internalType": "uint256",
          "name": "value",
          "type": "uint256"
        }
      ],
      "name": "Approval",
      "type": "event"
    },
    {
      "anonymous": false,
      "inputs": [
        {
          "indexed": true,
          "internalType": "address",
          "name": "claimer",
          "type": "address"
        },
        {
          "indexed": false,
          "internalType": "uint256",
          "name": "amount",
          "type": "uint256"
        },
        {
          "indexed": false,
          "internalType": "uint256",
          "name": "timestamp",
          "type": "uint256"
        }
      ],
      "name": "TokensClaimed",
      "type": "event"
    },
    {
      "anonymous": false,
      "inputs": [
        {
          "indexed": true,
          "internalType": "address",
          "name": "from",
          "type": "address"
        },
        {
          "indexed": true,
          "internalType": "address",
          "name": "to",
          "type": "address"
        },
        {
          "indexed": false,
          "internalType": "uint256",
          "name": "value",
          "type": "uint256"
        }
      ],
      "name": "Transfer",
      "type": "event"
    },
    {
      "inputs": [],
      "name": "CLAIM_COOLDOWN",
      "outputs": [
        {
          "internalType": "uint256",
          "name": "",
          "type": "uint256"
        }
      ],
      "stateMutability": "view",
      "type": "function"
    },
    {
      "inputs": [],
      "name": "TOKENS_PER_CLAIM",
      "outputs": [
        {
          "internalType": "uint256",
          "name": "",
          "type": "uint256"
        }
      ],
      "stateMutability": "view",
      "type": "function"
    },
    {
      "inputs": [
        {
          "internalType": "address",
          "name": "owner",
          "type": "address"
        },
        {
          "internalType": "address",
          "name": "spender",
          "type": "address"
        }
      ],
      "name": "allowance",
      "outputs": [
        {
          "internalType": "uint256",
          "name": "",
          "type": "uint256"
        }
      ],
      "stateMutability": "view",
      "type": "function"
    },
    {
      "inputs": [
        {
          "internalType": "address",
          "name": "spender",
          "type": "address"
        },
        {
          "internalType": "uint256",
          "name": "value",
          "type": "uint256"
        }
      ],
      "name": "approve",
      "outputs": [
        {
          "internalType": "bool",
          "name": "",
          "type": "bool"
        }
      ],
      "stateMutability": "nonpayable",
      "type": "function"
    },
    {
      "inputs": [
        {
          "internalType": "address",
          "name": "account",
          "type": "address"
        }
      ],
      "name": "balanceOf",
      "outputs": [
        {
          "internalType": "uint256",
          "name": "",
          "type": "uint256"
        }
      ],
      "stateMutability": "view",
      "type": "function"
    },
    {
      "inputs": [
        {
          "internalType": "address",
          "name": "user",
          "type": "address"
        }
      ],
      "name": "canClaim",
      "outputs": [
        {
          "internalType": "bool",
          "name": "",
          "type": "bool"
        }
      ],
      "stateMutability": "view",
      "type": "function"
    },
    {
      "inputs": [],
      "name": "claimTokens",
      "outputs": [],
      "stateMutability": "nonpayable",
      "type": "function"
    },
    {
      "inputs": [],
      "name": "decimals",
      "outputs": [
        {
          "internalType": "uint8",
          "name": "",
          "type": "uint8"
        }
      ],
      "stateMutability": "view",
      "type": "function"
    },
    {
      "inputs": [
        {
          "internalType": "address",
          "name": "",
          "type": "address"
        }
      ],
      "name": "lastClaimed",
      "outputs": [
        {
          "internalType": "uint256",
          "name": "",
          "type": "uint256"
        }
      ],
      "stateMutability": "view",
      "type": "function"
    },
    {
      "inputs": [],
      "name": "name",
      "outputs": [
        {
          "internalType": "string",
          "name": "",
          "type": "string"
        }
      ],
      "stateMutability": "view",
      "type": "function"
    },
    {
      "inputs": [],
      "name": "symbol",
      "outputs": [
        {
          "internalType": "string",
          "name": "",
          "type": "string"
        }
      ],
      "stateMutability": "view",
      "type": "function"
    },
    {
      "inputs": [
        {
          "internalType": "address",
          "name": "user",
          "type": "address"
        }
      ],
      "name": "timeUntilNextClaim",
      "outputs": [
        {
          "internalType": "uint256",
          "name": "",
          "type": "uint256"
        }
      ],
      "stateMutability": "view",
      "type": "function"
    },
    {
      "inputs": [],
      "name": "totalSupply",
      "outputs": [
        {
          "internalType": "uint256",
          "name": "",
          "type": "uint256"
        }
      ],
      "stateMutability": "view",
      "type": "function"
    },
    {
      "inputs": [
        {
          "internalType": "address",
          "name": "to",
          "type": "address"
        },
        {
          "internalType": "uint256",
          "name": "value",
          "type": "uint256"
        }
      ],
      "name": "transfer",
      "outputs": [
        {
          "internalType": "bool",
          "name": "",
          "type": "bool"
        }
      ],
      "stateMutability": "nonpayable",
      "type": "function"
    },
    {
      "inputs": [
        {
          "internalType": "address",
          "name": "from",
          "type": "address"
        },
        {
          "internalType": "address",
          "name": "to",
          "type": "address"
        },
        {
          "internalType": "uint256",
          "name": "value",
          "type": "uint256"
        }
      ],
      "name": "transferFrom",
      "outputs": [
        {
          "internalType": "bool",
          "name": "",
          "type": "bool"
        }
      ],
      "stateMutability": "nonpayable",
      "type": "function"
    }
  ],
  "bytecode": "0x60806040523480156200001157600080fd5b506040518060400160405280600c81526020016b29ba3ab232b73a2a37b5b2b760a11b8152506040518060400160405280600381526020016253544360e81b8152508160039081620000649190620002b2565b506004620000738282620002b2565b505050620000923369d3c21bcecceda10000006200009860201b60201c565b620003a6565b6001600160a01b038216620000c85760405163ec442f0560e01b8152600060048201526024015b60405180910390fd5b620000d660008383620000da565b5050565b6001600160a01b03831662000109578060026000828254620000fd91906200037e565b909155506200017d9050565b6001600160a01b038316600090815260208190526040902054818110156200015e5760405163391434e360e21b81526001600160a01b03851660048201526024810182905260448101839052606401620000bf565b6001600160a01b03841660009081526020819052604090209082900390555b6001600160a01b0382166200019b57600280548290039055620001ba565b6001600160a01b03821660009081526020819052604090208054820190555b816001600160a01b0316836001600160a01b03167fddf252ad1be2c89b69c2b068fc378daa952ba7f163c4a11628f55a4df523b3ef836040516200020091815260200190565b60405180910390a3505050565b634e487b7160e01b600052604160045260246000fd5b600181811c908216806200023857607f821691505b6020821081036200025957634e487b7160e01b600052602260045260246000fd5b50919050565b601f821115620002ad57600081815260208120601f850160051c81016020861015620002885750805b601f850160051c820191505b81811015620002a95782815560010162000294565b5050505b505050565b81516001600160401b03811115620002ce57620002ce6200020d565b620002e681620002df845462000223565b846200025f565b602080601f8311600181146200031e5760008415620003055750858301515b600019600386901b1c1916600185901b178555620002a9565b600085815260208120601f198616915b828110156200034f578886015182559484019460019091019084016200032e565b50858210156200036e5787850151600019600388901b60f8161c191681555b5050505050600190811b01905550565b80820180821115620003a057634e487b7160e01b600052601160045260246000fd5b92915050565b61098f80620003b66000396000f3fe608060405234801561001057600080fd5b50600436106100f55760003560e01c806348c54b9d11610097578063a9059cbb11610066578063a9059cbb146101e5578063bf3506c1146101f8578063ccfff6791461020b578063dd62ed3e1461021a57600080fd5b806348c54b9d1461019757806370a08231146101a157806392d82dbe146101ca57806395d89b41146101dd57600080fd5b806318160ddd116100d357806318160ddd1461016557806323b872dd1461016d578063313ce5671461018057806337c909ec1461018f57600080fd5b8063013eba92146100fa57806306fdde031461012d578063095ea7b314610142575b600080fd5b61011a6101083660046107e1565b60056020526000908152604090205481565b6040519081526020015b60405180910390f35b610135610253565b60405161012491906107fc565b61015561015036600461084a565b6102e5565b6040519015158152602001610124565b60025461011a565b61015561017b366004610874565b6102ff565b60405160128152602001610124565b61011a603c81565b61019f610323565b005b61011a6101af3660046107e1565b6001600160a01b031660009081526020819052604090205490565b61011a6101d83660046107e1565b610407565b610135610451565b6101556101f336600461084a565b610460565b6101556102063660046107e1565b61046e565b61011a678ac7230489e8000081565b61011a6102283660046108b0565b6001600160a01b03918216600090815260016020908152604080832093909416825291909152205490565b606060038054610262906108e3565b80601f016020809104026020016040519081016040528092919081815260200182805461028e906108e3565b80156102db5780601f106102b0576101008083540402835291602001916102db565b820191906000526020600020905b8154815290600101906020018083116102be57829003601f168201915b5050505050905090565b6000336102f381858561049c565b60019150505b92915050565b60003361030d8582856104ae565b61031885858561052d565b506001949350505050565b3360009081526005602052604090205461033f90603c90610933565b42101561039f5760405162461bcd60e51b815260206004820152602360248201527f576169742031206d696e757465206265666f726520636c61696d696e6720616760448201526230b4b760e91b60648201526084015b60405180910390fd5b6103b133678ac7230489e8000061058c565b3360008181526005602090815260409182902042908190558251678ac7230489e800008152918201527f9923b4306c6c030f2bdfbf156517d5983b87e15b96176da122cd4f2effa4ba7b910160405180910390a2565b6001600160a01b038116600090815260056020526040812054819061042e90603c90610933565b90508042106104405750600092915050565b61044a4282610946565b9392505050565b606060048054610262906108e3565b6000336102f381858561052d565b6001600160a01b03811660009081526005602052604081205461049390603c90610933565b42101592915050565b6104a983838360016105c6565b505050565b6001600160a01b03838116600090815260016020908152604080832093861683529290522054600019811015610527578181101561051857604051637dc7a0d960e11b81526001600160a01b03841660048201526024810182905260448101839052606401610396565b610527848484840360006105c6565b50505050565b6001600160a01b03831661055757604051634b637e8f60e11b815260006004820152602401610396565b6001600160a01b0382166105815760405163ec442f0560e01b815260006004820152602401610396565b6104a983838361069b565b6001600160a01b0382166105b65760405163ec442f0560e01b815260006004820152602401610396565b6105c26000838361069b565b5050565b6001600160a01b0384166105f05760405163e602df0560e01b815260006004820152602401610396565b6001600160a01b03831661061a57604051634a1406b160e11b815260006004820152602401610396565b6001600160a01b038085166000908152600160209081526040808320938716835292905220829055801561052757826001600160a01b0316846001600160a01b03167f8c5be1e5ebec7d5bd14f71427d1e84f3dd0314c0f7b2291e5b200ac8c7c3b9258460405161068d91815260200190565b60405180910390a350505050565b6001600160a01b0383166106c65780600260008282546106bb9190610933565b909155506107389050565b6001600160a01b038316600090815260208190526040902054818110156107195760405163391434e360e21b81526001600160a01b03851660048201526024810182905260448101839052606401610396565b6001600160a01b03841660009081526020819052604090209082900390555b6001600160a01b03821661075457600280548290039055610773565b6001600160a01b03821660009081526020819052604090208054820190555b816001600160a01b0316836001600160a01b03167fddf252ad1be2c89b69c2b068fc378daa952ba7f163c4a11628f55a4df523b3ef836040516107b891815260200190565b60405180910390a3505050565b80356001600160a01b03811681146107dc57600080fd5b919050565b6000602082840312156107f357600080fd5b61044a826107c5565b600060208083528351808285015260005b818110156108295785810183015185820160400152820161080d565b506000604082860101526040601f19601f8301168501019250505092915050565b6000806040838503121561085d57600080fd5b610866836107c5565b946020939093013593505050565b60008060006060848603121561088957600080fd5b610892846107c5565b92506108a0602085016107c5565b9150604084013590509250925092565b600080604083850312156108c357600080fd5b6108cc836107c5565b91506108da602084016107c5565b90509250929050565b600181811c908216806108f757607f821691505b60208210810361091757634e487b7160e01b600052602260045260246000fd5b50919050565b634e487b7160e01b600052601160045260246000fd5b808201808211156102f9576102f961091d565b818103818111156102f9576102f961091d56fea26469706673582212205006fbba17e3b254ba6d4962bcbdfc70be014f85b442417df40bc88a111097a664736f6c63430008140033",
  "linkReferences": {},
  "deployedLinkReferences": {}
}